:020000040800F2
:1000000000500020B50200088D020008910200088F
:1000100095020008990200089D02000800000000F7
:10002000000000000000000000000000A102000825
:10003000A502000800000000A9020008AD020008A7
:10004000FD020008FD020008FD020008FD02000894
:10005000FD020008FD020008FD020008FD02000884
:10006000FD020008FD020008FD020008FD02000874
:10007000FD020008FD020008FD020008FD02000864
:10008000FD020008FD020008FD020008FD02000854
:10009000FD020008FD020008FD020008FD02000844
:1000A000FD020008FD020008FD020008FD02000834
:1000B000FD020008FD020008FD020008FD02000824
:1000C000FD020008FD020008FD020008FD02000814
:1000D000FD020008FD020008FD020008FD02000804
:1000E000FD020008FD020008FD02000800000000FB
:1000F0000000000000000000000000000000000000
:0C01000000000000000000005FF808F1A3
:10010C0010B5054C237833B9044B13B10448AFF345
:10011C0000800123237010BD3C040020000000006F
:10012C00640D000808B5034B1BB103490348AFF33A
:10013C00008008BD0000000040040020640D000891
:10014C0000230122D0B5012090B04FF4803102245D
:10015C00CDE90B33CDE90133CDE90333089300939B
:10016C000A9209934FF480324FF4E013CDE9060163
:10017C0006A8CDE90E230D9400F09AFA08B172B6D8
:10018C00FEE703460F260227002204934FF48063F8
:10019C0021466846CDE90067CDE9022300F078FCE2
:1001AC0008B172B6FEE710B0D0BD00BF80B588B004
:1001BC0000F0C4F8FFF7C4FF0022CDE90422CDE91A
:1001CC0006221C4B1C489D694FF4005145F010054C
:1001DC009D619D69044605F010050195019E9D6980
:1001EC00032745F020059D619D6905F020050295CA
:1001FC00029E9D69002645F004059D619B6903F0F4
:10020C0004030393039B00F045FA4FF400520123BF
:10021C00204604A9CDE90667CDE9042300F02CF9AA
:10022C00142000F0AFF84FF40051204600F036FADD
:10023C00F6E700BF00100240001001400E4B82B0E8
:10024C009A690E4942F001029A619A6902F0010220
:10025C000092009ADA6942F08052DA61DB6903F0AD
:10026C0080530193019B4B6823F0E06343F00073D0
:10027C004B6002B0704700BF00100240000001400C
:10028C00FEE700BFFEE700BFFEE700BFFEE700BFD2
:10029C00FEE700BF704700BF704700BF704700BF4C
:1002AC0000F05EB8704700BF0C480D490D4A0023A2
:1002BC0002E0D458C4500433C4188C42F9D30A4A0F
:1002CC000A4C002301E013600432A242FBD3FFF777
:1002DC00E9FF00F0ADFCFFF769FF7047000000205C
:1002EC003C040020B00D00083C04002060040020F9
:1002FC00FEE7000038B54FF47A730D4A05461178C5
:10030C000C4AB3FBF1F31268B2FBF3F000F09CF86B
:10031C0008B90F2D01D9012038BD044602462946E3
:10032C004FF0FF3000F052F8034B20461D6038BDF3
:10033C00040000200000002008000020074A08B537
:10034C001368032043F01003136000F02DF80F2006
:10035C00FFF7D0FFFFF772FF002008BD002002401E
:10036C00034A044B11681B780B441360704700BFA1
:10037C005804002004000020014B1868704700BF8F
:10038C005804002038B50446FFF7F6FF631C0546F9
:10039C0002D0044B1B781C44FFF7EEFF401BA0421D
:1003AC00FAD338BD040000204FF6FF0C06490302B7
:1003BC00CA6803F4E06302EA0C02134343F0BF6320
:1003CC0043F40033CB60704700ED00E01C4B00B5EC
:1003DC00DB68C3F30223C3F1070EBEF1040F03F174
:1003EC00040C28BF4FF0040EBCF1060F1BD94FF0C4
:1003FC00FF3C033B0CFA03FC22EA0C024FF0FF3CDF
:10040C000CFA0EFC21EA0C019940002841EA020189
:10041C000CDB090100F16040C9B200F5614080F8C5
:10042C0000135DF804FB00221346E7E7054B00F0D0
:10043C000F000901C9B2034419765DF804FB00BF33
:10044C0000ED00E0FCEC00E00138B0F1807F0FD251
:10045C004FF0E0234FF0F00C0022072110B4054CB4
:10046C00586184F823C010469A6110BC196170471A
:10047C000120704700ED00E02DE9F04F0E6883B0CD
:10048C00002E00F0B58000227A4F924613467A4D2A
:10049C00DFF8E88106E0013336FA03F402F10402D6
:1004AC0000F0A68001249C4034EA060E04EA060CF7
:1004BC00F1D14E68122E00F29E80122E1AD8DFE86F
:1004CC0006F0A7B9B5CE191919191919191919194D
:1004DC00191919B1BC00DFF8A8E1764500F0988035
:1004EC000EF5702E764500F09380AEF5801E7645A5
:1004FC0000F08E80BCF1FF0F9CBF864693464FF0F8
:10050C000F0684BF00F1040EA2F1200BDEF80040B0
:10051C000AFA0BF906FA0BFB24EA0B0444EA090469
:10052C00CEF800404C6814F0805F79D0D7F818E012
:10053C0003F003094EF0010EC7F818E0D7F818E0E5
:10054C004FEA89090EF0010ECDF804E0DDF804E065
:10055C0023F0030E0EF1804E0EF5803EDEF808B04F
:10056C0006FA09F62BEA0606DFF818B1584513D03F
:10057C000BF5806B58456BD0DFF80CB1584560D04B
:10058C00DFF808B158450CBF4FF0030B4FF0040BCC
:10059C000BFA09F946EA0906CEF808602E6814F43D
:1005AC00803F14BF46EA0C0626EA0C062E606E68E5
:1005BC0014F4003F14BF46EA0C0626EA0C066E60E3
:1005CC00AE6814F4801F14BF46EA0C0626EA0C062B
:1005DC00AE6014F4001FEC681FD044EA0C04EC600D
:1005EC000E68013336FA03F402F104027FF45AAFB9
:1005FC0003B0BDE8F08F46450AD07FF66CAFDFF84C
:10060C0090E0764504D00EF5803E76457FF472AFCF
:10061C008E683EBB4FF0040A6CE724EA0C04EC60D5
:10062C000E6838E7CC6804F1040A63E7CC6804F17F
:10063C00080A5FE7D1F80CA05CE7CC6804F10C0A5F
:10064C0058E74FF0020B0BFA09F946EA0906A3E743
:10065C004FF0010B0BFA09F946EA09069CE74FF03B
:10066C00000A47E7012E4FF0080A0CBF04614461F1
:10067C0040E700BF001002400004014000002210BF
:10068C00000012100008014000100140001401404D
:10069C000000311002B9090401617047C36801EA16
:1006AC00030221EA030141EA02410161704700BFE4
:1006BC00002800F0B6812DE9F04103680446DD07FF
:1006CC0082B035D59A494A6802F00C02042A00F02F
:1006DC00EF804A6802F00C02082A00F0E58063689B
:1006EC00B3F5803F10D0002B00F00C81B3F5A02F98
:1006FC0000F082818E4B1A6822F480321A601A68DC
:10070C0022F480221A6004E0894A136843F480338F
:10071C001360FFF731FE864E054605E0FFF72CFE11
:10072C00401B642800F2EA8033689A03F6D52368EC
:10073C009F0728D57E4A516811F00C0F00F08D8070
:10074C00516801F00C01082900F083802369002B0B
:10075C0000F018810122774B754E1A60FFF70CFEE2
:10076C00054605E0FFF708FE401B022800F2C68094
:10077C0033689807F6D53368626923F0F80343EAC7
:10078C00C203336023681A071FD45D0742D5684B38
:10079C00DA69D0007DD50025674E3368D90540F164
:1007AC009D80E368012B00F0FE80002B00F0CA80D6
:1007BC00052B5F4B1A6A00F02C8122F001021A62A1
:1007CC001A6A22F004021A62F2E0A369002B4FD0DD
:1007DC000122584B564EC3F88024FFF7CDFD054639
:1007EC0005E0FFF7C9FD401B022800F28780736A01
:1007FC009B07F6D5514B524A1B68A2FB03235B0A9D
:10080C00019300BF019B5A1E0192002BF9D1236862
:10081C005D07BCD4E069C0B1454D6B6803F00C03B7
:10082C00082B00F0D8800022424B02281A6600F0F8
:10083C00FA80FFF7A1FD044604E0FFF79DFD001BC5
:10084C0002285BD82B689B01F7D4002002B0BDE8CE
:10085C00F0815268D6033FF579AF354A1268950797
:10086C0030D52269012A2DD0012002B0BDE8F081DB
:10087C00304A2F4EC2F88034FFF77EFD054604E067
:10088C00FFF77AFD401B022838D8736A9F07F7D40C
:10089C00BDE7DA69012542F08052DA61DB6903F0C9
:1008AC0080530093009B77E74A68D0037FF517AF1E
:1008BC001F4A126891037FF53BAF6268002A7FF4F0
:1008CC0037AFD1E71A4960690A6822F0F80242EAA8
:1008DC00C0020A601A077FF558AF76E7336843F415
:1008EC0080733360FFF748FD07463368DA053FF540
:1008FC0058AFFFF741FDC01B6428F6D9032002B0A6
:10090C00BDE8F0810A4D2B6823F480332B602B68F3
:10091C0023F480232B60FFF72FFD064604E0FFF73E
:10092C002BFD801B6428E9D82B689B03F7D4FEE6CB
:10093C000010024000004242007000400000002005
:10094C00D34D6210504E41F28838336A23F00103C4
:10095C003362336A23F004033362FFF70DFD07465D
:10096C0004E0FFF709FDC01B4045C7D8336A980760
:10097C00F7D4002D3FF44EAF434AD36923F0805394
:10098C00D36147E7414A404E1360FFF7F5FC05463B
:10099C0004E0FFF7F1FC401B0228AFD8336899073D
:1009AC00F7D42368EFE6384A136A43F00103136265
:1009BC00FFF7E2FC41F288380646334F04E0FFF7BC
:1009CC00DBFC801B404599D83B6A9B07F7D5002D73
:1009DC003FF420AFD0E701283FF438AF6B68226AB0
:1009EC0003F4803191427FF43FAF606A03F47013DB
:1009FC00181A18BF012029E703F18043A3F53C33F3
:100A0C001A6842F480221A601A6842F480321A6022
:100A1C007FE642F004021A621A6A42F001021A627C
:100A2C00C6E701207047FFF7A7FC064605E0FFF775
:100A3C00A3FC801B02283FF661AF2B689901F6D40A
:100A4C00236AB3F5803F05D16A68A16822F40032AD
:100A5C000A436A6001200C4D616A6A680B4322F4F8
:100A6C0074120A4913436B600866FFF785FC044651
:100A7C0005E0FFF781FC001B02283FF63FAF2B6817
:100A8C009A01F6D5E1E600BF001002400000424298
:100A9C00002800F0B1805E4A2DE9F041136804464D
:100AAC0003F007038B420D4686B00DD2136823F07A
:100ABC0007030B431360136803F007038B4203D047
:100ACC00012006B0BDE8F08123689E0714D55807B5
:100ADC0004D550494A6842F4E0624A60190704D5CB
:100AEC004C494A6842F460524A604A49A0684A68D4
:100AFC0022F0F00202434A60DA0720D56268454BC7
:100B0C00012A1B687AD0022A73D09E07D8D5414E91
:100B1C0041F28838736823F0030313437360FFF7C3
:100B2C002BFC074604E0FFF727FCC01B404568D8A8
:100B3C007368626803F00C03B3EB820FF3D1344A91
:100B4C00136803F00703AB4209D9136823F00703BA
:100B5C002B431360136803F00703AB42B0D1236837
:100B6C00580706D52B49E0684A6822F4E062024334
:100B7C004A60190707D5274A2169536823F4605343
:100B8C0043EAC103536040F20124234B06AD0FCB63
:100B9C0005E90F001F49ADF804404A6802F00C0348
:100BAC00082B11D01D4B1B4A1D4852681D49C2F31E
:100BBC000312805C1C4AC34008681360FFF79AFB61
:100BCC00002006B0BDE8F081C2F3834318336B44B8
:100BDC00D20313F8103C16D54A681049C2F34042B0
:100BEC0001FB03F318326A4412F8142CB3FBF2F332
:100BFC00D9E79F018BD463E7012070479B0386D410
:100C0C005EE703205DE7094A02FB03F3CBE700BF75
:100C1C0000200240001002408C0D000800127A00E7
:100C2C007C0D0008080000200000002000093D0099
:100C3C0070B50D4E0D4D761BB61006D0002455F830
:100C4C00043B01349847A642F9D1094E094D00F0F6
:100C5C0083F8761BB61006D0002455F8043B0134FB
:100C6C009847A642F9D170BDA40D0008A40D000848
:100C7C00AC0D0008A40D0008024B13B1024800F0A3
:100C8C0005B8704700000000A50C000800230146C1
:100C9C001A46184600F01AB838B5084B084D5B1BBD
:100CAC009C1007D0043B1D44013C55F8043998476F
:100CBC00002CF9D1BDE8384000F054B8B00D000854
:100CCC00AC0D0008704700BF704700BF2DE9F0471E
:100CDC00DFF87CA00646DAF8000098460F469146ED
:100CEC00FFF7F0FF1B4B1B68D3F8484124B3656832
:100CFC001F2D26DC5EB96B1C0235DAF80000636030
:100D0C0044F82570FFF7E0FF0020BDE8F0870123D1
:100D1C0004EB8501C1F88890D4F88821AB401A43C4
:100D2C00022EC4F88821C1F80881E4D1D4F88C21B2
:100D3C001343C4F88C31DEE703F5A674C3F84841BD
:100D4C00D5E7DAF80000FFF7BFFF4FF0FF30DCE724
:100D5C0038040020A00D0008F8B500BFF8BC08BC92
:100D6C009E467047F8B500BFF8BC08BC9E4670475D
:100D7C00000000000000000001020304060708093F
:100D8C0002030405060708090A0B0C0D0E0F1010C0
:080D9C0000000000100000201F
:080DA400850C00083101000874
:040DAC000D0100082D
:100DB0000024F4000100000010000000000000000A
:100DC00000000000FC02002064030020CC0300208F
:100DD0000000000000000000000000000000000013
:100DE0000000000000000000000000000000000003
:100DF00000000000000000000000000000000000F3
:100E000000000000000000000000000000000000E2
:100E100000000000000000000000000000000000D2
:100E200000000000000000000000000000000000C2
:100E300000000000000000000000000000000000B2
:100E400000000000000000000000000000000000A2
:100E50000000000000000000000000000000000092
:100E60000000000000000000010000000000000081
:100E70000E33CDAB34126DE6ECDE05000B00000046
:100E80000000000000000000000000000000000062
:100E90000000000000000000000000000000000052
:100EA0000000000000000000000000000000000042
:100EB0000000000000000000000000000000000032
:0C11E00000000000000000005C04002083
:04000005080002B538
:00000001FF
