:020000040800F2
:1000000000500020CD0A0008810A0008850A000877
:10001000890A00088D0A0008910A00080000000003
:10002000000000000000000000000000950A000829
:10003000990A0008000000009D0A0008A10A0008B3
:10004000150B0008150B0008150B0008150B000810
:10005000150B0008150B0008150B0008150B000800
:10006000150B0008150B0008150B0008150B0008F0
:10007000150B0008150B0008150B0008150B0008E0
:10008000150B0008150B0008150B0008150B0008D0
:10009000150B0008150B0008150B0008150B0008C0
:1000A000150B0008150B0008150B0008150B0008B0
:1000B000150B0008150B0008150B0008150B0008A0
:1000C000150B0008150B0008150B0008150B000890
:1000D000150B0008A50A0008B10A0008BD0A0008AF
:1000E000150B0008150B0008150B00080000000098
:1000F0000000000000000000000000000000000000
:0C01000000000000000000005FF808F1A3
:10010C0010B5054C237833B9044B13B10448AFF345
:10011C0000800123237010BD40040020000000006B
:10012C00C022000808B5034B1BB103490348AFF3C9
:10013C00008008BD0000000044040020C02200081C
:10014C00664BF0B41C68002C13DD0A3C48BF00223F
:10015C004FF00000596944BF14461A60DA6901F186
:10016C00640102F1640258BF1C605961DA611861C4
:10017C0098615A68002A0CDD0A3A48BF0022002018
:10018C005A609A6919696432C3E9050264311961CC
:10019C00D8619A68002A78DD0A3A48BF00229A6032
:1001AC00002C41D0D3E905010022DD6800F5617017
:1001BC0001F561719542C3E905011A61DA6140F3F9
:1001CC008A800A3D4ABF0022DD60DA60002C6FD0C5
:1001DC0000201C69DA6904F5617402F56172B4F5EA
:1001EC007A7F0146C3E905001C61DA6133DD4FF407
:1001FC007A741C61B0F57A7F34DD4FF47A705861F3
:10020C00B1F57A7F35DD4FF47A71B2F57A7F996169
:10021C0036DD4FF47A72DA61314B1B685C6398639C
:10022C00F0BCD9631A6470475A68002A4ED0196919
:10023C00DA69DD6801F5617102F56172002DC3E9BF
:10024C000414C3E90642BCDCD3E90440D3E906122A
:10025C00B4F57A7FCBDC002CBCBF00241C61B0F55C
:10026C007A7FCADC0028BCBF00205861B1F57A7FC8
:10027C00C9DC0029BCBF00219961B2F57A7FC8DCCA
:10028C00002ABCBF0022DA61C6E7DD68002D98DCCD
:10029C00002CD9D15A68002AD6D100240026002778
:1002AC00214622462046C3E90467C3E90667A7E74F
:1002BC005A68002AF1D0D3E9051201F5617102F5F3
:1002CC006172C3E90441C3E90624BDE7DD68002D72
:1002DC003FF777AFE1E714468CE700BF78050020C5
:1002EC006004002038B5574A03680446934206D090
:1002FC00554A934227D0554A934248D038BD544D65
:10030C0001222946534801F0DFFC2B78613B162B68
:10031C0012D8DFE803F06C11110C1111111111112D
:10032C001111111111111111661111116000002020
:10033C006421494BC3E902012046BDE83840012243
:10034C00434901F0E1BC454D01222946414801F0E9
:10035C00BBFC2B78613B162B12D8DFE803F05A114B
:10036C00110C111111111111111111111111111176
:10037C00541111114E0000206421374BC3E90201C6
:10038C002046BDE838400122344901F0BDBC344D53
:10039C00012229462F4801F097FC2B78613B162B44
:1003AC0012D8DFE803F04811110C111111111111C1
:1003BC001111111111111111421111113C000020D8
:1003CC006421254BC3E902012046BDE838400122D7
:1003DC00234901F099BC642000211F4BC3E90001A3
:1003EC00AAE7002064211C4BC3E90001A4E76420A8
:1003FC000021194BC3E902019EE764200021164B32
:10040C00C3E90001BCE700206421134BC3E90001E0
:10041C00B6E764200021104BC3E90201B0E7642069
:10042C0000210D4BC3E90001CEE7002064210A4BEB
:10043C00C3E90001C8E764200021074BC3E90201AE
:10044C00C2E700BF003801400044004000480040B3
:10045C005C040020A80400207805002098050020EA
:10046C007405002030B58BB06C464FF47A7000F0F8
:10047C0095FB114B114D0FCB07C469460D22284635
:10048C00238001F021FC0E4C642000F087FB0FCC84
:10049C000DF1100CACE80F0094E803004CF8040BC1
:1004AC00ACF80010152204A9284601F00DFC6420BC
:1004BC0000F074FB0BB030BDD8220008EC04002017
:1004CC00E822000810B50C4C0021204601F034F94C
:1004DC000421204601F030F90821204601F02CF9C6
:1004EC000C21204601F028F9002223685A639A63F4
:1004FC00DA631A6410BD00BF60040020F8B50A2549
:10050C0064270024094E336864205F639C63DF63B7
:10051C001C6400F043FB336864205C639C63DC6305
:10052C001C6400F03BFB013DEDD1F8BD60040020E4
:10053C0000230122D0B5012090B04FF48031022469
:10054C00CDE90B33CDE90133CDE9033308930093A7
:10055C000A9209934FF480324FF4E013CDE906016F
:10056C0006A8CDE90E230D9400F028FD08B172B653
:10057C00FEE703460F260227002204934FF4806304
:10058C0021466846CDE90067CDE9022300F006FF5D
:10059C0008B172B6FEE710B0D0BD00BF002480B524
:1005AC009AB000F0D7FAFFF7C3FFCDE91244CDE9BA
:1005BC001444914B4FF400519A69904842F0100248
:1005CC009A619A698E4D02F010020092009A9A6913
:1005DC0042F020029A619A6902F020020192019A7B
:1005EC009A6942F004029A619A6902F0040202923A
:1005FC00029A9A6942F008029A619B69224603F0BA
:10060C0008030393039B00F0CBFC4FF4005201232F
:10061C00CDE9122303230022784812A9CDE9142333
:10062C0000F0B0FB2022214612A8CDE90644CDE90A
:10063C000844CDE90444CDE90A44CDE90C44CDE9A4
:10064C000E44109401F046FD47236B6040F2E733F3
:10065C00EB606C4B2846C5E90444AC60AC612B6084
:10066C0000F08CFF08B172B6FEE74FF480532846B9
:10067C0006A9069301F0B8F908B172B6FEE7284650
:10068C0000F0ECFF08B172B6FEE700260027284602
:10069C0004A9CDE9046701F04DFA024608B172B61F
:1006AC00FEE74FF060084FF0000910900AA92846A9
:1006BC00CDE90C67CDE90E67CDE90A8901F098F810
:1006CC0008B172B6FEE7042228460AA901F090F898
:1006DC0008B172B6FEE7082228460AA901F088F88C
:1006EC0008B172B6FEE70C2228460AA901F080F880
:1006FC0008B172B6FEE700224FF40053199012A90C
:10070C002846CDE91267CDE91467CDE9162301F02F
:10071C0043FA044608B172B6FEE7284600F0BAF870
:10072C000C234FF4E13238484361384BC0E90244A2
:10073C00C0E9064404614260036001F057FA08B155
:10074C0072B6FEE700234FF4E1370C26304D314AE8
:10075C002846C5E90173C5E90333C5E90563EB61B7
:10076C002A6001F043FA034608B172B6FEE72A4C40
:10077C00C4E90633294BC4E90170C4E903002046DF
:10078C006661236001F032FA08B172B6FEE7FFF73A
:10079C0099FE1D48FFF7A6FD2846FFF7A3FD20464E
:1007AC00FFF7A0FDFFF75EFE1D4B12AD0FCB07C58B
:1007BC0025F8023B1B0C2B700E2212A9124801F0DB
:1007CC0083FA12A801F0D8FC024612A992B2204674
:1007DC0001F07AFA6420094E00F0E0F9FFF78EFE82
:1007EC00142000F0DBF94FF40051304600F0DCFB34
:1007FC00FFF7A6FCF4E700BF001002400010014018
:10080C0060040020002C0140A804002000380140A6
:10081C00EC0400200044004030050020004800405B
:10082C00002300080E4B82B09A690E4942F0010277
:10083C009A619A6902F001020092009ADA6942F018
:10084C008052DA61DB6903F080530193019B4B68A2
:10085C0023F0E06343F000734B6002B0704700BFBD
:10086C000010024000000140094B02689A4200D07F
:10087C00704703F564439A6982B042F400629A614E
:10088C009B6903F400630193019B02B0704700BFA6
:10089C00002C0140002330B5174A016887B0914203
:1008AC00CDE90233CDE9043301D007B030BD0320CC
:1008BC004FF48074022503F1804303F504339A69E5
:1008CC0002A942F004029A619B69059003F00403AB
:1008DC0001930A48CDE90245019B4FF4606400F096
:1008EC0051FA02250223054802A9CDE902450593D8
:1008FC0000F048FA07B030BD002C01400008014060
:10090C00F0B50024544A03688BB09342CDE90644F9
:10091C00CDE9084407D0514A93423BD0504A934208
:10092C0068D00BB0F0BD4F4B40269A69022742F4B9
:10093C0080429A619A6906A902F480420092009A58
:10094C009A69494842F008029A619B69CDE90667A9
:10095C0003F0080301930323019A099300F012FAA0
:10096C0080220023414D06A93F48CDE90623089477
:10097C0000F008FA6B68224643F0E06343F004038E
:10098C0021466B60252000F02DF9252000F068F938
:10099C000BB0F0BD334B0426DA69022742F4003267
:1009AC00DA61DA6906A902F400320292029A9A69B3
:1009BC002F4842F004029A619B69CDE9066703F067
:1009CC00040303930323039A099300F0DBF9002338
:1009DC00082206A92648CDE90623089400F0D2F98E
:1009EC0022462146262000F0FDF8262000F038F99A
:1009FC000BB0F0BD1B4B4FF48066DA69022742F452
:100A0C008022DA61DA6906A902F480220492049A3F
:100A1C009A69154842F008029A619B69CDE906670C
:100A2C0003F0080305930323059A099300F0AAF930
:100A3C0000234FF4006206A90B48CDE90623089465
:100A4C0000F0A0F922462146272000F0CBF8272001
:100A5C0000F006F90BB0F0BD003801400044004036
:100A6C000048004000100240000C01400000014012
:100A7C0000080140FEE700BFFEE700BFFEE700BF35
:100A8C00FEE700BFFEE700BF704700BF704700BF26
:100A9C00704700BF00F070B8014801F0C9B900BF41
:100AAC00A8040020014801F0C3B900BFEC040020E9
:100ABC00014801F0BDB900BF30050020704700BFF0
:100ACC000C480D490D4A002302E0D458C45004339D
:100ADC00C4188C42F9D30A4A0A4C002301E0136073
:100AEC000432A242FBD3FFF7E9FF01F0CFFAFFF784
:100AFC0055FD7047000000203C0400204C230008EA
:100B0C0040040020A4050020FEE7000038B54FF497
:100B1C007A730D4A054611780C4AB3FBF1F312684F
:100B2C00B2FBF3F000F0AAF808B90F2D01D901209F
:100B3C0038BD0446024629464FF0FF3000F052F80B
:100B4C00034B20461D6038BD04000020000000202F
:100B5C0008000020074A08B51368032043F010036F
:100B6C00136000F02DF80F20FFF7D0FFFFF75AFEAF
:100B7C00002008BD00200240034A044B11681B787A
:100B8C000B441360704700BF9C050020040000203C
:100B9C00014B1868704700BF9C05002038B504460F
:100BAC00FFF7F6FF631C054602D0044B1B781C4470
:100BBC00FFF7EEFF401BA042FAD338BD0400002023
:100BCC004FF6FF0C06490302CA6803F4E06302EA1D
:100BDC000C02134343F0BF6343F40033CB60704704
:100BEC0000ED00E01C4B00B5DB68C3F30223C3F13E
:100BFC00070EBEF1040F03F1040C28BF4FF0040ED6
:100C0C00BCF1060F1BD94FF0FF3C033B0CFA03FC65
:100C1C0022EA0C024FF0FF3C0CFA0EFC21EA0C010C
:100C2C009940002841EA02010CDB090100F1604007
:100C3C00C9B200F5614080F800135DF804FB002296
:100C4C001346E7E7054B00F00F000901C9B2034456
:100C5C0019765DF804FB00BF00ED00E0FCEC00E051
:100C6C00002807DB012300F01F01034A40098B40D9
:100C7C0042F82030704700BF00E100E00138B0F1CD
:100C8C00807F0FD24FF0E0234FF0F00C00220721B1
:100C9C0010B4054C586184F823C010469A6110BCFE
:100CAC00196170470120704700ED00E090F8212099
:100CBC000346022A06D0042100220120996383F8FE
:100CCC002020704701214FF4807C10B41A681C6CF2
:100CDC000020A140146824F00E041460146824F061
:100CEC0001041460DA6B5160A3F820C010BC70478B
:100CFC0090F821200346022A03D0042201209A6393
:100D0C007047026810B511681B4821F00E01116084
:100D1C001168824221F00101116021D017498A42E9
:100D2C001AD014318A421DD014318A421DD014318C
:100D3C008A421DD014318A420CBF4FF480124FF0FE
:100D4C0080724FF480700E4C596B6260188429B11C
:100D5C0018468847002010BD1022F2E7084610BD47
:100D6C000122EEE74FF48072EBE74FF48052E8E794
:100D7C004FF48032E5E700BF080002401C0002403F
:100D8C00000002402DE9F04F0E6883B0002E00F0F9
:100D9C00B58000227A4F924613467A4DDFF8E881EF
:100DAC0006E0013336FA03F402F1040200F0A680E7
:100DBC0001249C4034EA060E04EA060CF1D14E687C
:100DCC00122E00F29E80122E1AD8DFE806F0A7B978
:100DDC00B5CE19191919191919191919191919B18E
:100DEC00BC00DFF8A8E1764500F098800EF5702E77
:100DFC00764500F09380AEF5801E764500F08E802F
:100E0C00BCF1FF0F9CBF864693464FF00F0684BF84
:100E1C0000F1040EA2F1200BDEF800400AFA0BF9E7
:100E2C0006FA0BFB24EA0B0444EA0904CEF8004052
:100E3C004C6814F0805F79D0D7F818E003F0030900
:100E4C004EF0010EC7F818E0D7F818E04FEA890900
:100E5C000EF0010ECDF804E0DDF804E023F0030EF3
:100E6C000EF1804E0EF5803EDEF808B006FA09F65B
:100E7C002BEA0606DFF818B1584513D00BF5806B3A
:100E8C0058456BD0DFF80CB1584560D0DFF808B18D
:100E9C0058450CBF4FF0030B4FF0040B0BFA09F93C
:100EAC0046EA0906CEF808602E6814F4803F14BF99
:100EBC0046EA0C0626EA0C062E606E6814F4003F17
:100ECC0014BF46EA0C0626EA0C066E60AE6814F4F3
:100EDC00801F14BF46EA0C0626EA0C06AE6014F41A
:100EEC00001FEC681FD044EA0C04EC600E68013360
:100EFC0036FA03F402F104027FF45AAF03B0BDE8F2
:100F0C00F08F46450AD07FF66CAFDFF890E076455F
:100F1C0004D00EF5803E76457FF472AF8E683EBBF2
:100F2C004FF0040A6CE724EA0C04EC600E6838E716
:100F3C00CC6804F1040A63E7CC6804F1080A5FE7A3
:100F4C00D1F80CA05CE7CC6804F10C0A58E74FF020
:100F5C00020B0BFA09F946EA0906A3E74FF0010B5D
:100F6C000BFA09F946EA09069CE74FF0000A47E735
:100F7C00012E4FF0080A0CBF0461446140E700BF2A
:100F8C00001002400004014000002210000012106A
:100F9C000008014000100140001401400000311015
:100FAC0002B9090401617047C36801EA030221EA2E
:100FBC00030141EA02410161704700BF002800F0C3
:100FCC00B6812DE9F04103680446DD0782B035D5C2
:100FDC009A494A6802F00C02042A00F0EF804A6831
:100FEC0002F00C02082A00F0E5806368B3F5803F3C
:100FFC0010D0002B00F00C81B3F5A02F00F08281F3
:10100C008E4B1A6822F480321A601A6822F48022FD
:10101C001A6004E0894A136843F480331360FFF7C5
:10102C00B7FD864E054605E0FFF7B2FD401B642870
:10103C0000F2EA8033689A03F6D523689F0728D517
:10104C007E4A516811F00C0F00F08D80516801F050
:10105C000C01082900F083802369002B00F0188113
:10106C000122774B754E1A60FFF792FD054605E09D
:10107C00FFF78EFD401B022800F2C68033689807EC
:10108C00F6D53368626923F0F80343EAC203336090
:10109C0023681A071FD45D0742D5684BDA69D00064
:1010AC007DD50025674E3368D90540F19D80E368F6
:1010BC00012B00F0FE80002B00F0CA80052B5F4B4B
:1010CC001A6A00F02C8122F001021A621A6A22F0CC
:1010DC0004021A62F2E0A369002B4FD00122584B94
:1010EC00564EC3F88024FFF753FD054605E0FFF785
:1010FC004FFD401B022800F28780736A9B07F6D5D0
:10110C00514B524A1B68A2FB03235B0A019300BF9D
:10111C00019B5A1E0192002BF9D123685D07BCD4A8
:10112C00E069C0B1454D6B6803F00C03082B00F06F
:10113C00D8800022424B02281A6600F0FA80FFF792
:10114C0027FD044604E0FFF723FD001B02285BD8B3
:10115C002B689B01F7D4002002B0BDE8F0815268E7
:10116C00D6033FF579AF354A1268950730D5226919
:10117C00012A2DD0012002B0BDE8F081304A2F4E5B
:10118C00C2F88034FFF704FD054604E0FFF700FDCC
:10119C00401B022838D8736A9F07F7D4BDE7DA6979
:1011AC00012542F08052DA61DB6903F08053009331
:1011BC00009B77E74A68D0037FF517AF1F4A126888
:1011CC0091037FF53BAF6268002A7FF437AFD1E71C
:1011DC001A4960690A6822F0F80242EAC0020A6001
:1011EC001A077FF558AF76E7336843F480733360A2
:1011FC00FFF7CEFC07463368DA053FF558AFFFF72B
:10120C00C7FCC01B6428F6D9032002B0BDE8F081EE
:10121C000A4D2B6823F480332B602B6823F4802336
:10122C002B60FFF7B5FC064604E0FFF7B1FC801B12
:10123C006428E9D82B689B03F7D4FEE60010024023
:10124C00000042420070004000000020D34D6210AC
:10125C00504E41F28838336A23F001033362336A0B
:10126C0023F004033362FFF793FC074604E0FFF717
:10127C008FFCC01B4045C7D8336A9807F7D4002DA4
:10128C003FF44EAF434AD36923F08053D36147E711
:10129C00414A404E1360FFF77BFC054604E0FFF724
:1012AC0077FC401B0228AFD833689907F7D4236822
:1012BC00EFE6384A136A43F001031362FFF768FC48
:1012CC0041F288380646334F04E0FFF761FC801B7F
:1012DC00404599D83B6A9B07F7D5002D3FF420AFCA
:1012EC00D0E701283FF438AF6B68226A03F48031F1
:1012FC0091427FF43FAF606A03F47013181A18BF61
:10130C00012029E703F18043A3F53C331A6842F42A
:10131C0080221A601A6842F480321A607FE642F02A
:10132C0004021A621A6A42F001021A62C6E701202C
:10133C007047FFF72DFC064605E0FFF729FC801BE4
:10134C0002283FF661AF2B689901F6D4236AB3F5F6
:10135C00803F05D16A68A16822F400320A436A60B2
:10136C0001200C4D616A6A680B4322F474120A491D
:10137C0013436B600866FFF70BFC044605E0FFF7B0
:10138C0007FC001B02283FF63FAF2B689A01F6D5ED
:10139C00E1E600BF0010024000004242002800F0CD
:1013AC00B1805E4A2DE9F0411368044603F007034F
:1013BC008B420D4686B00DD2136823F007030B4306
:1013CC001360136803F007038B4203D0012006B0AF
:1013DC00BDE8F08123689E0714D5580704D5504901
:1013EC004A6842F4E0624A60190704D54C494A68DD
:1013FC0042F460524A604A49A0684A6822F0F002FE
:10140C0002434A60DA0720D56268454B012A1B6803
:10141C007AD0022A73D09E07D8D5414E41F2883833
:10142C00736823F0030313437360FFF7B1FB0746A4
:10143C0004E0FFF7ADFBC01B404568D873686268D9
:10144C0003F00C03B3EB820FF3D1344A136803F0AF
:10145C000703AB4209D9136823F007032B4313602E
:10146C00136803F00703AB42B0D12368580706D5C5
:10147C002B49E0684A6822F4E06202434A6019078B
:10148C0007D5274A2169536823F4605343EAC10303
:10149C00536040F20124234B06AD0FCB05E90F003E
:1014AC001F49ADF804404A6802F00C03082B11D018
:1014BC001D4B1B4A1D4852681D49C2F30312805C28
:1014CC001C4AC34008681360FFF720FB002006B0DD
:1014DC00BDE8F081C2F3834318336B44D20313F895
:1014EC00103C16D54A681049C2F3404201FB03F385
:1014FC0018326A4412F8142CB3FBF2F3D9E79F01AB
:10150C008BD463E7012070479B0386D45EE70320EE
:10151C005DE7094A02FB03F3CBE700BF0020024062
:10152C00001002402823000800127A001023000843
:10153C00080000200000002000093D00044B054A73
:10154C005B680549C3F30223CB5C1068D840704735
:10155C00001002400000002020230008044B054A24
:10156C005B680549C3F3C223CB5C1068D840704755
:10157C00001002400000002020230008002866D044
:10158C0010B590F83D30044603F0FF02002B45D017
:10159C00022322682F4984F83D308A42136842D0D6
:1015AC00B2F1804F11D0A1F594318A420DD001F5E2
:1015BC0080618A4209D0A06923F080030343E1686B
:1015CC0013606368D162936210E0A16823F070032A
:1015DC0020690B4323F44073A169034323F0800378
:1015EC00E0680B4361681360D06291620123536120
:1015FC0084F8463084F83E3084F83F3084F840302C
:10160C0084F8413084F8423084F8433084F8443014
:10161C0084F8453084F83D30002010BD80F83C2023
:10162C00FFF722F9B4E7A06823F0700321690343A4
:10163C0023F440730B43A16923F080030B43136025
:10164C00E368D3626368936263691363CEE7012036
:10165C00704700BF002C0140704700BF002866D0C7
:10166C0010B590F83D30044603F0FF02002B45D036
:10167C00022322682F4984F83D308A42136842D0F5
:10168C00B2F1804F11D0A1F594318A420DD001F501
:10169C0080618A4209D0A06923F080030343E1688A
:1016AC0013606368D162936210E0A16823F0700349
:1016BC0020690B4323F44073A169034323F0800397
:1016CC00E0680B4361681360D0629162012353613F
:1016DC0084F8463084F83E3084F83F3084F840304B
:1016EC0084F8413084F8423084F8433084F8443034
:1016FC0084F8453084F83D30002010BD80F83C2043
:10170C00FFF7AAFFB4E7A06823F070032169034335
:10171C0023F440730B43A16923F080030B43136044
:10172C00E368D3626368936263691363CEE7012055
:10173C00704700BF002C014041BB90F83E30012B9C
:10174C0038D1022380F83E300122036801F01F01DA
:10175C00186A02FA01F120EA010010B418621A6A40
:10176C00214C1143A342196226D0B3F1804F27D0EC
:10177C001E4A934224D002F58062934220D01A680C
:10178C00002042F0010210BC1A60704704291FD0DF
:10179C0008290BD090F84130012B0BD104291BD018
:1017AC0008291DD0022380F84130CDE790F8403055
:1017BC00012B15D0012070475A6C42F400425A6438
:1017CC009A6802F00702062AD9D1002010BC704793
:1017DC0090F83F30012BEDD1022380F83F30B3E776
:1017EC00022380F84030AFE7002C01400004004099
:1017FC00034690F83C00012800F0C0800120F0B4B2
:10180C0083F83C000C2A2DD8DFE802F0072C2C2C96
:10181C00602C2C2C8D2C2C2C32001A680E68106A23
:10182C0020F001001062106A5568946920F00200E3
:10183C0024F0730434438E6830436A4EB24200F095
:10184C009F8055604D6894610C6955631062906976
:10185C0040F008009061906920F00400906191695B
:10186C0021439161002283F83C201046F0BC704764
:10187C001A680E68106A20F480501062106A55685D
:10188C00D46920F4005024F4E64444EA06248E681B
:10189C0040EA0630534EB24200F08E8055604D68DF
:1018AC00D4610C6915641062D06940F40060D06199
:1018BC00D06920F48060D061D16941EA0421D16102
:1018CC00002283F83C201046F0BC70471A680E6862
:1018DC00106A20F010001062106A5568946920F0AC
:1018EC00200024F4E64444EA06248E6840EA0610FC
:1018FC003C4EB24251D055604D6894610C69956371
:10190C001062906940F400609061906920F48060EE
:10191C009061916941EA04219161002283F83C2095
:10192C001046F0BC70471A680E68106A20F480707C
:10193C001062106A5568D46920F4007024F07304A6
:10194C0034438E6840EA0620264EB2423AD05560A7
:10195C004D68D4610C69D5631062D06940F0080001
:10196C00D061D06920F00400D061D1692143D161EC
:10197C00002283F83C201046F0BC704702207047D0
:10198C00CE6820F00800304325F44075D1E9056796
:10199C003E4320F00400354353E7CE6820F080002E
:1019AC0040EA061025F44065D1E905673E4320F076
:1019BC00400045EA86059EE74E6925F4804545EAD8
:1019CC0086156BE7CE6820F4006040EA062025F40B
:1019DC004055D1E905673E4320F4806045EA061581
:1019EC00B5E700BF002C014090F83C20012A75D0CF
:1019FC0030B4034601240222006883F83C4083F88B
:101A0C003D2084680A6824F47F4424F07704602A1B
:101A1C00846065D031D8402A48D021D9502A16D1BB
:101A2C004C68CD68016A21F00A012143046A24F054
:101A3C0001040462826922F0F00242EA051282611A
:101A4C000162826822F0700242F05702826000222A
:101A5C00012183F83C2083F83D10104630BC7047C0
:101A6C00202A02D01ED9302AF1D1816821F07001D0
:101A7C000A4342F007028260E9E7702A49D0B2F5C6
:101A8C00005FE4D1D1E9015284682A43CD6824F483
:101A9C007F4142EA05220A438260826842F4804216
:101AAC008260D4E732F01001D1D1DEE74C68CD680A
:101ABC00016A21F00A012143046A24F00104046242
:101ACC00826922F0F00242EA0512826101628268A8
:101ADC0022F0700242F047028260B8E702207047A1
:101AEC00046ACA6824F010044D680462816921F408
:101AFC00704141EA0231026A816122F0A00242EA9D
:101B0C0005120262826822F0700242F06702826063
:101B1C009DE7D1E9015284682A43CD6824F47F41C2
:101B2C0042EA05220A438260826842F077028260B0
:101B3C008DE700BF90F83C20012A27D003460220F5
:101B4C001A6830B483F83D0050680C68104D20F0D2
:101B5C0070002043AA429468506009D0B2F1804FC3
:101B6C0006D00C48824203D000F58060824204D13A
:101B7C00496824F080040C4394600022012183F80E
:101B8C003C2083F83D10104630BC70470220704753
:101B9C00002C01400004004090F83C30012B23D075
:101BAC000246D1E902034FF0000C23F440730343C7
:101BBC00486823F480630343086823F400630343F9
:101BCC00086923F4805310B403434C6923F4005385
:101BDC00C8692343116823F4804303434B6482F8A0
:101BEC003CC0604610BC704702207047002864D08F
:101BFC00F8B590F83D30044603F0FF02002B54D0AA
:101C0C00D4E902272421206923680243606984F8FF
:101C1C003D100243D868A66920F40050D8601969B9
:101C2C00274D21F4405139431961D968AB4221F455
:101C3C00B05121F00C0142EA0102DA605A6922F437
:101C4C00407242EA06025A6134D0FFF777FC6268B0
:101C5C0000EB8003920003EB8303B3FBF2F36426E7
:101C6C0000254FF0200C17482168A0FB0372520985
:101C7C0006FB12331B013233A0FB0303120102EBF0
:101C8C0053138B600B69284623F490430B614B690B
:101C9C0023F02A034B61CB6843F40053CB602564DB
:101CAC0084F83DC084F83EC0F8BD80F83C20FEF7B7
:101CBC0027FEA5E7FFF752FCC9E70120704700BFDC
:101CCC00003801401F85EB5190F83D30202B19D185
:101CDC00B1B1AAB190F83C30012B13D000234FF0D6
:101CEC00210C01620168C28480F83C30036480F8E6
:101CFC003DC08284CA68184642F08002CA607047B0
:101D0C00012070470220704790F83E30202B22D1E2
:101D1C00F9B1F2B190F83C30012B1CD000234FF0FC
:101D2C00220C81620168036380F83C30C285036435
:101D3C0080F83EC08285CA68184642F48072CA6038
:101D4C004B6943F001034B61CB6843F02003CB603C
:101D5C007047012070470220704700BF704700BFDA
:101D6C00704700BF08B50023406AC385C384FFF7E2
:101D7C00F7FF08BD704700BF8368B3F5805F3BD0A9
:101D8C00826A002B30D003685B6803F07F0313700A
:101D9C00836A01338362C38D013B9BB2C38553BB02
:101DAC004FF0200C026800B5D16883B021F02001FF
:101DBC00D160D16821F48071D160516921F00101A9
:101DCC00516180F83EC0016B012920D10363D168B9
:101DDC0021F01001D1601168C90622D4818DFFF762
:101DEC00C9FF03B05DF804FB0369002BCBD103687A
:101DFC005B681370CCE7704703696BB90268836A40
:101E0C005268C2F3080223F8022B8362C3E7FEF781
:101E1C0069FA03B05DF804FB0368826A5B681370AF
:101E2C00B6E701931368019353680193019BD5E7BF
:101E3C0030B5036804461A6883B012F00F0FD968E6
:101E4C005D694ED1950602D58D0600F19080206B10
:101E5C0001280BD0100602D50D0600F19280500619
:101E6C0002D54A0600F1AB8003B030BDD006F1D5E7
:101E7C00CD06EFD5002101911A6801925A680192A2
:101E8C00019A5A6912F0400200F0D280A06B0268ED
:101E9C00526892B2002AE7D0A58D9542E4D9E2852A
:101EAC008269202A16D0DA6822F48072DA605A69C4
:101EBC0022F001025A615A6922F040025A61202232
:101ECC0084F83E202163DA6822F01002DA60FEF713
:101EDC00EDFEA58DE18D2046691A89B2FFF74AFF08
:101EEC00C2E705F0010501F490702843AFD0D0078C
:101EFC0005D5C80503D5206C40F0010020645007BF
:101F0C0030D54DB1206C40F002002064900703D511
:101F1C00206C40F004002064100707D501F020006D
:101F2C00284303D0206C40F008002064206C00286B
:101F3C009AD0900609D58A0607D594F83E20222A15
:101F4C0003D12046FFF718FF23685A69256C02F06D
:101F5C00400205F0080515433CD12046FFF700FF71
:101F6C00256481E79007D7D5002DD1D1D4E790F81F
:101F7C003E30222B7FF478AF03B0BDE83040FFF742
:101F8C00FBBE94F83D20212A7FF46EAFA268B2F517
:101F9C00805F6ED0226A511C216212785A60E28CEA
:101FAC00013A92B2E284002A7FF45EAFDA6822F042
:101FBC008002DA60DA6842F04002DA6054E72021ED
:101FCC00DA68204622F04002DA6084F83D10FFF710
:101FDC00C5FE49E7DA6822F49072DA605A6922F099
:101FEC0001025A61226B012A03D1DA6822F0100235
:101FFC00DA600022202184F83E1022635A695506CB
:10200C0012D55A69A06B22F040025A6160B11E4B86
:10201C004363FEF76DFE00283FF426AFA06B436BC5
:10202C0003B0BDE8304018472046FFF799FE1BE788
:10203C00E08DE18D80B289B200293FF415AFA18DFE
:10204C00081A81B200293FF40FAF2025D86820F47C
:10205C009070D860586920F00100586184F83E50A7
:10206C002263DA68204622F01002DA60FFF782FE63
:10207C00FAE62269002A8DD1226A32F8021BC1F3DA
:10208C000801596022628AE7711D000870B50D4E77
:10209C000D4D761BB61006D0002455F8043B0134C8
:1020AC009847A642F9D1094E094D00F003F9761B69
:1020BC00B61006D0002455F8043B01349847A642CC
:1020CC00F9D170BD402300084023000848230008C4
:1020DC0040230008830730B548D0541E002A3FD057
:1020EC000346CAB201E0013C3AD303F8012B9D0729
:1020FC00F9D1032C2DD9CDB245EA05250F2C45EA93
:10210C00054536D9A4F1100222F00F0C03F1200E74
:10211C00E6444FEA121C03F1100242E9045542E96D
:10212C00025510327245F8D10CF1010214F00C0F6B
:10213C0003EB021204F00F0C13D0ACF1040323F0E8
:10214C0003030433134442F8045B9342FBD10CF0B9
:10215C0003042CB1CAB21C4403F8012B9C42FBD1E2
:10216C0030BD64461346002CF4D1F9E703461446FF
:10217C00BFE71A46A446E0E720F0030110F0030085
:10218C00C0F1000051F8043B00F1040C4FEACC0CF8
:10219C006FF000021CBF22FA0CF213434FF0010C3B
:1021AC004CEA0C2C4CEA0C4CA3EB0C0222EA03027A
:1021BC0012EACC1204BF51F8043B0430F4D0C2F143
:1021CC00000102EA0102B2FA82F2C2F11F0200EB34
:1021DC00D2007047024B13B1024800F005B87047AB
:1021EC000000000001220008002301461A46184690
:1021FC0000F01AB838B5084B084D5B1B9C1007D083
:10220C00043B1D44013C55F804399847002CF9D186
:10221C00BDE8384000F054B84C23000848230008AF
:10222C00704700BF704700BF2DE9F047DFF87CA076
:10223C000646DAF8000098460F469146FFF7F0FF85
:10224C001B4B1B68D3F8484124B365681F2D26DC53
:10225C005EB96B1C0235DAF80000636044F8257037
:10226C00FFF7E0FF0020BDE8F087012304EB8501B8
:10227C00C1F88890D4F88821AB401A43022EC4F8D8
:10228C008821C1F80881E4D1D4F88C211343C4F817
:10229C008C31DEE703F5A674C3F84841D5E7DAF8CC
:1022AC000000FFF7BFFF4FF0FF30DCE738040020E1
:1022BC003C230008F8B500BFF8BC08BC9E4670472C
:0C22CC00F8B500BFF8BC08BC9E46704787
:1022D80041542B4349504D55583D310D0A000000DB
:1022E80041542B4349505345525645523D312C38A1
:1022F8003839360D0A00000048656C6C6F20576F3E
:10230800726C64210D0A000000000000000000004B
:102318000102030406070809000000000102030483
:1023280002030405060708090A0B0C0D0E0F10100E
:0823380000000000100000206D
:08234000E12100083101000851
:042348000D0100087B
:10234C000024F40001000000100000000000000058
:10235C0000000000FC02002064030020CC030020DD
:10236C000000000000000000000000000000000061
:10237C000000000000000000000000000000000051
:10238C000000000000000000000000000000000041
:10239C000000000000000000000000000000000031
:1023AC000000000000000000000000000000000021
:1023BC000000000000000000000000000000000011
:1023CC000000000000000000000000000000000001
:1023DC0000000000000000000000000000000000F1
:1023EC0000000000000000000000000000000000E1
:1023FC0000000000000000000100000000000000D0
:10240C000E33CDAB34126DE6ECDE05000B00000094
:10241C0000000000000000000000000000000000B0
:10242C0000000000000000000000000000000000A0
:10243C000000000000000000000000000000000090
:10244C000000000000000000000000000000000080
:0C277C000000000000000000A00500208C
:0400000508000ACD18
:00000001FF
